:020000040000FA
:10300000B7EF39F0BDEF39F0C3EF39F0D2EF39F057
:10301000D3EF39F0D9EF39F015EF3AF024EF3AF069
:1030200005EF3AF00DEF3AF033EF3AF0FDEF39F0FB
:10303000F7EF39F0DFEF39F0EAEF39F0BEEF3DF0AE
:10304000BFEF3DF0C0EF3DF0C1EF3DF004EF3AF0CF
:1030500003EF3AF0C2EF3DF0C3EF3DF0C4EF3DF0B7
:103060001200000012000000120000001200000018
:103070001200000012000000120000001200000008
:10308000FFFFFFFFFFFFFFFFFFFFFFFFFFFFFFFF50
:10309000FFFFFFFFFFFFFFFFFFFFFFFFFFFFFFFF40
:10330000D9CFEDFFE9CFD9FF10C0EDFF11C0EDFF20
:1033100012C0EDFF106E020EDBCF11F0220E105C1A
:10332000D8B095EF20F013C0EDFF14C0EDFF146A84
:1033300010341436E8341436FC0B136E000EFB6E9A
:10334000330EFA6E5C0E13261450FA22D8B0FB2A04
:103350001350ECCF14F0ECCF13F0F96EF2EF19F03C
:1033600059EF1AF07FEF1AF0A6EF1AF0CDEF1AF02E
:1033700034EF1BF05CEF1BF085EF1BF0AEEF1BF0A2
:10338000F9EF1BF022EF1CF04BEF1CF06DEF1CF07F
:103390008FEF1CF0EAEF1CF00CEF1DF033EF1DF087
:1033A0005AEF1DF081EF1DF0A3EF1DF0CAEF1DF0E5
:1033B000F2EF1DF031EF1EF070EF1EF086EF1EF001
:1033C00072EF1FF0A5EF1FF0D8EF1FF00BEF20F00A
:1033D0003EEF20F053EF20F068EF20F07CEF20F07C
:1033E00090EF20F01150D8A464D00F0100510F0BC2
:1033F000106E1050010A12E10F0100510F0BE86E20
:10340000000EED6E000EE1EC3DF0E92A010EED6ECE
:10341000010EE1EC3DF0E92A95EF20F00F0100519B
:103420000F0B106E1050020A12E10F0100510F0B2A
:10343000E86E000EED6E010EE1EC3DF0E92A010EA2
:10344000ED6E020EE1EC3DF0E92A95EF20F00F0160
:1034500000510F0B106E1050040A12E10F010051C1
:103460000F0BE86E000EED6E020EE1EC3DF0E92A66
:10347000010EED6E030EE1EC3DF0E92A95EF20F030
:103480000F0100510F0B106E1050080A12E10F01CE
:1034900000510F0BE86E000EED6E030EE1EC3DF0F7
:1034A000E92A010EED6E010EE1EC3DF0E92A95EFFF
:1034B00020F0115024E1106A0F0100B9102A010E0A
:1034C000101A1050010BE838F46E0051EF0BF41095
:1034D000006F040E5EEC16F0106E105008E0000E47
:1034E000ED6E040EE1EC3DF0E92A95EF20F0010EBF
:1034F000ED6E040EE1EC3DF0E92A95EF20F011505D
:1035000025E1106A0F0100BB102A010E101A10509D
:10351000010BE838E844F46E0051DF0BF410006F43
:10352000050E5EEC16F0106E105008E0000EED6E09
:10353000050EE1EC3DF0E92A95EF20F0010EED6E6D
:10354000050EE1EC3DF0E92A95EF20F0115025E160
:10355000106A0F0100BD102A010E101A1050010B45
:10356000E840E840F46E0051BF0BF410006F060E07
:103570005EEC16F0106E105008E0000EED6E060EB8
:10358000E1EC3DF0E92A95EF20F0010EED6E060E1C
:10359000E1EC3DF0E92A95EF20F01150D8A464D079
:1035A0000F0101510F0B106E1050010A12E10F01B3
:1035B00001510F0BE86E000EED6E080EE1EC3DF0D0
:1035C000E92A010EED6E090EE1EC3DF0E92A95EFD6
:1035D00020F00F0101510F0B106E1050020A12E182
:1035E0000F0101510F0BE86E000EED6E090EE1ECBC
:1035F0003DF0E92A010EED6E0A0EE1EC3DF0E92AFC
:1036000095EF20F00F0101510F0B106E1050040ABE
:1036100012E10F0101510F0BE86E000EED6E0A0E64
:10362000E1EC3DF0E92A010EED6E0B0EE1EC3DF010
:10363000E92A95EF20F00F0101510F0B106E105089
:10364000080A12E10F0101510F0BE86E000EED6E3A
:103650000B0EE1EC3DF0E92A010EED6E080EE1ECF7
:103660003DF0E92A95EF20F01150D8A495EF20F015
:10367000106A0F0101B9102A010E101A1050010B27
:10368000E838F46E0151EF0BF410016F0C0E5EEC94
:1036900016F0106E105008E0000EED6E0C0EE1EC0E
:1036A0003DF0E92A95EF20F0010EED6E0C0EE1ECF5
:1036B0003DF0E92A95EF20F01150D8A495EF20F0C5
:1036C000106A0F0101BB102A010E101A1050010BD5
:1036D000E838E844F46E0151DF0BF410016F0D0E71
:1036E0005EEC16F0106E105008E0000EED6E0D0E40
:1036F000E1EC3DF0E92A95EF20F0010EED6E0D0EA4
:10370000E1EC3DF0E92A95EF20F01150D8A495EFB7
:1037100020F0106A0F0101BD102A010E101A10507E
:10372000010BE840E840F46E0151BF0BF410016F4B
:103730000E0E5EEC16F0106E105008E0000EED6EEE
:103740000E0EE1EC3DF0E92A95EF20F0010EED6E52
:103750000E0EE1EC3DF0E92A95EF20F01150D8A4CF
:1037600095EF20F00F010251070B106E1050010A67
:1037700012E10F010251070BE86E000EED6E100E04
:10378000E1EC3DF0E92A010EED6E110EE1EC3DF0A9
:10379000E92A95EF20F00F010251070B106E10502F
:1037A000020A12E10F010251070BE86E000EED6EE6
:1037B000110EE1EC3DF0E92A010EED6E120EE1EC86
:1037C0003DF0E92A95EF20F00F010251070BE86E5A
:1037D0000251070BE86E000EED6E120EE1EC3DF0AB
:1037E000E92A010EED6E100EE1EC3DF0E92A95EFAD
:1037F00020F01150D8A495EF20F0106A0F0102BB01
:10380000102A010E101A1050010BE838E844F46E2B
:103810000251DF0BF410026F150E5EEC16F0106E05
:10382000105008E0000EED6E150EE1EC3DF0E92AB7
:1038300095EF20F0010EED6E150EE1EC3DF0E92A5A
:1038400095EF20F01150D8A495EF20F0106A0F01E9
:1038500002BD102A010E101A1050010BE840E8407A
:10386000F46E0251BF0BF410026F160E5EEC16F0F0
:10387000106E105008E0000EED6E160EE1EC3DF0FB
:10388000E92A95EF20F0010EED6E160EE1EC3DF009
:10389000E92A95EF20F01150D8A495EF20F00F0100
:1038A0000351FF0B106E2651101A1050036F180EA3
:1038B0005EEC16F0106E105008E0000EED6E180E63
:1038C000E1EC3DF0E92A95EF20F0010EED6E180EC7
:1038D000E1EC3DF0E92A95EF20F01150D8A495EFE6
:1038E00020F00F010451FF0B106E2651101A1050DA
:1038F000046F190E5EEC16F0106E105008E0000E0A
:10390000ED6E190EE1EC3DF0E92A95EF20F0010E85
:10391000ED6E190EE1EC3DF0E92A95EF20F0115023
:10392000D8A495EF20F026CF10F01050010A0BE03C
:103930001050020A08E01050040A28E01050080A4B
:1039400025E095EF20F0106A0F0105B1102A010E55
:10395000101A1050010BF46E0551FE0BF410056F98
:103960001A0E5EEC16F0106E105008E0000EED6EB0
:103970001A0EE1EC3DF0E92A95EF20F0010EED6E14
:103980001A0EE1EC3DF0E92A95EF20F0106A0F01E4
:1039900005B3102A010E101A1050010BE844F46E02
:1039A0000551FD0BF410056F1A0E5EEC16F0106E4B
:1039B000105008E0000EED6E1A0EE1EC3DF0E92A21
:1039C00095EF20F0010EED6E1A0EE1EC3DF0E92AC4
:1039D00095EF20F01150D8A495EF20F00F0106517B
:1039E000FF0B106E2651101A1050066F1B0E5EEC66
:1039F00016F0106E105008E0000EED6E1B0EE1EC9C
:103A00003DF0E92A95EF20F0010EED6E1B0EE1EC82
:103A10003DF0E92A95EF20F01150D8A495EF20F061
:103A20000F0108510F0B106E2651101A10500F0B7A
:103A3000F46E0851F00BF410086F1C0E5EEC16F0DB
:103A4000106E105008E0000EED6E1C0EE1EC3DF023
:103A5000E92A95EF20F0010EED6E1C0EE1EC3DF031
:103A6000E92A95EF20F01150D8A495EF20F00F012E
:103A700009510F0B106E2651101A10500F0BF46ED7
:103A80000951F00BF410096F1D0E5EEC16F0106E6C
:103A9000105008E0000EED6E1D0EE1EC3DF0E92A3D
:103AA00095EF20F0010EED6E1D0EE1EC3DF0E92AE0
:103AB00095EF20F01150D8A495EF20F00F010A5196
:103AC0000F0B106E2651101A10500F0BF46E0A5186
:103AD000F00BF4100A6F1E0E5EEC16F0106E105014
:103AE00008E0000EED6E1E0EE1EC3DF0E92A95EFC8
:103AF00020F0010EED6E1E0EE1EC3DF0E92A95EF8F
:103B000020F01150D8A495EF20F00F010751FF0BC2
:103B1000106E2651101A1050076F1F0E5EEC16F033
:103B2000106E105008E0000EED6E1F0EE1EC3DF03F
:103B3000E92A95EF20F0010EED6E1F0EE1EC3DF04D
:103B4000E92A95EF20F01150D8A495EF20F0106AE3
:103B50000F010BB1102A010E101A1050010BF46E58
:103B60000B51FE0BF4100B6F280E5EEC16F0106E6E
:103B7000105008E0000EED6E280EE1EC3DF0E92A51
:103B800095EF20F0010EED6E280EE1EC3DF0E92AF4
:103B900095EF20F01150D8A495EF20F0106A0F0196
:103BA0000BB3102A010E101A1050010BE844F46EEA
:103BB0000B51FD0BF4100B6F290E5EEC16F0106E1E
:103BC000105008E0000EED6E290EE1EC3DF0E92A00
:103BD00095EF20F0010EED6E290EE1EC3DF0E92AA3
:103BE00095EF20F01150D8A495EF20F00F010BA510
:103BF0001CD0000EED6E230EE1EC3DF0E92A000E24
:103C0000ED6E210EE1EC3DF0E92A010EED6E200E85
:103C1000E1EC3DF0E92A010EED6E220EE1EC3DF003
:103C2000E92A0F010B9595EF20F0000EED6E220EA4
:103C3000E1EC3DF0E92A000EED6E200EE1EC3DF0E6
:103C4000E92A010EED6E210EE1EC3DF0E92A010EAC
:103C5000ED6E230EE1EC3DF0E92A0F010B8595EFA7
:103C600020F01150D8A495EF20F00F010BA71CD025
:103C7000000EED6E270EE1EC3DF0E92A000EED6E30
:103C8000250EE1EC3DF0E92A010EED6E240EE1EC8B
:103C90003DF0E92A010EED6E260EE1EC3DF0E92A39
:103CA0000F010B9795EF20F0000EED6E260EE1EC64
:103CB0003DF0E92A000EED6E240EE1EC3DF0E92A1C
:103CC000010EED6E250EE1EC3DF0E92A010EED6EE0
:103CD000270EE1EC3DF0E92A0F010B8795EF20F06C
:103CE0001150D8A495EF20F0106A07012EB7102AC2
:103CF000010E101A1050010BE838E840F46E2E51F6
:103D0000F70BF4102E6F2E8595EF20F01150D8A4EC
:103D100095EF20F026CFE8FF090E0F01265D02E3A4
:103D2000010E266F050E66EC16F0106EF00E1016E2
:103D30000F01265110121050ED6E050EE7EC3DF00C
:103D4000E92A0F010351FF0B126E26511216125071
:103D500007E0010EED6E180EE1EC3DF0E92A06D009
:103D6000000EED6E180EE1EC3DF0E92A0F01045152
:103D7000FF0B126E26511216125007E0010EED6E67
:103D8000190EE1EC3DF0E92A06D0000EED6E190E99
:103D9000E1EC3DF0E92A0F0108510F0B126E26519C
:103DA0001216125007E0010EED6E1C0EE1EC3DF014
:103DB000E92A06D0000EED6E1C0EE1EC3DF0E92A7A
:103DC0000F0109510F0B126E26511216125007E007
:103DD000010EED6E1D0EE1EC3DF0E92A06D0000E5D
:103DE000ED6E1D0EE1EC3DF0E92A0F010A510F0BBB
:103DF000126E26511216125007E0010EED6E1E0EC5
:103E0000E1EC3DF0E92A06D0000EED6E1E0EE1EC6D
:103E10003DF0E92A0F010651FF0B126E26511216D2
:103E2000125007E0010EED6E1B0EE1EC3DF0E92AA9
:103E300006D0000EED6E1B0EE1EC3DF0E92A0F01FD
:103E40000751FF0B126E26511216125007E0010E99
:103E5000ED6E1F0EE1EC3DF0E92A06D0000EED6E8E
:103E60001F0EE1EC3DF0E92A0F0105A10AD0030E77
:103E7000265D07E2010EED6E1A0EE1EC3DF0E92A37
:103E800013D00F0105A30AD0040E265D07E3010E2F
:103E9000ED6E1A0EE1EC3DF0E92A06D0000EED6E53
:103EA0001A0EE1EC3DF0E92A26CF12F01250010A79
:103EB0000AE01250020A0AE01250040A0BE0125003
:103EC000080A0CE032D10701326B2FD1010E070135
:103ED000326F2BD1020E0701326F27D1030E07017B
:103EE000326F23D11150D8A420D10F01786B010E6D
:103EF000796F07012EA70ED00F017951ED6E785121
:103F0000ED6E0F017751ED6E765108EC3BF0030E2C
:103F1000E9260DD00F017951ED6E7851ED6E0F014C
:103F20007751ED6E7651AFEC3BF0030EE926060EAD
:103F300066EC16F0106E0F0E101610881050ED6E15
:103F4000060EE7EC3DF0E92AF0D01150D8A4EDD0F0
:103F50000F01786B020E796F07012EA70ED00F01AB
:103F60007951ED6E7851ED6E0F017751ED6E76510E
:103F700008EC3BF0030EE9260DD00F017951ED6EF0
:103F80007851ED6E0F017751ED6E7651AFEC3BF04D
:103F9000030EE926060E66EC16F0106E0F0E1016D4
:103FA000108A1050ED6E060EE7EC3DF0E92ABDD008
:103FB0001150D8A4BAD00F01786B030E796F0701A6
:103FC0002EA70ED00F017951ED6E7851ED6E0F01D5
:103FD0007751ED6E765108EC3BF0030EE9260DD0DB
:103FE0000F017951ED6E7851ED6E0F017751ED6E45
:103FF0007651AFEC3BF0030EE926060E66EC16F0A8
:10400000106E0F0E1016108C1050ED6E060EE7ECB1
:104010003DF0E92A8AD01150D8A487D00F01786BDF
:10402000040E796F07012EA70ED00F017951ED6EA6
:104030007851ED6E0F017751ED6E765108EC3BF043
:10404000030EE9260DD00F017951ED6E7851ED6E1A
:104050000F017751ED6E7651AFEC3BF0030EE92680
:10406000060E66EC16F0106E0F0E1016108E105025
:10407000ED6E060EE7EC3DF0E92A57D01150D8A4BA
:1040800054D00F01766B100E776F070E66EC16F0AA
:10409000106EF00E101610801050ED6E070EE7EC4B
:1040A0003DF0E92A42D01150D8A43FD00F01766BE1
:1040B000200E776F070E66EC16F0106EF00E1016DD
:1040C00010821050ED6E070EE7EC3DF0E92A2DD07E
:1040D00011502BE10F01766B300E776F070E66ECF7
:1040E00016F0106EF00E101610841050ED6E070EC4
:1040F000E7EC3DF0E92A19D0115017E10F01766B7A
:10410000400E776F040E66EC16F0106EF00E10166F
:1041100010861050ED6E040EE7EC3DF0E92A05D054
:10412000115003E1010E0F01721BECCF12F0ECCF26
:1041300011F0ECCF10F0ECCFD9FF120010C0EDFF62
:1041400011C0EDFF12C0EDFF0F0100AB09D0070158
:10415000365106E00F017E6B7F6B010E0701361BA7
:104160000F012051D8B475EF22F000ADADD023CFB0
:1041700038F707013851ED6EFBEC33F0E92A0F01F7
:1041800008510F0B106E10C011F0115016E010C046
:1041900011F01150010A1AE010C011F01150020A7A
:1041A00001E133D010C011F01150040A01E14CD0EC
:1041B0001050080A01E168D098D1070114510F018D
:1041C0007E27070115510F017F238FD139C77EFF4D
:1041D0000F017F6B070114510F017E270701155155
:1041E0000F017F23070119510F017F5D04E10701D2
:1041F00018510F017E5D09E30F017E510701396FF0
:1042000018C77EFF19C77FFF70D139C77EFF0F0126
:104210007F6B070114510F017E27070115510F0114
:104220007F2307011B510F017F5D04E107011A5134
:104230000F017E5D09E30F017E510701396F1AC737
:104240007EFF1BC77FFF51D139C77EFF0F017F6BF8
:10425000070114510F017E27070115510F017F231C
:1042600007011D510F017F5D04E107011C510F0182
:104270007E5DD8A03AD10F017E510701396F1CC76E
:104280007EFF1DC77FFF31D139C77EFF0F017F6BD6
:10429000070114510F017E27070115510F017F23DC
:1042A00007011F510F017F5D04E107011E510F013E
:1042B0007E5DD8A01AD10F017E510701396F1EC74C
:1042C0007EFF1FC77FFF11D10F0108510F0B106E2A
:1042D00010C011F0115016E010C011F01150010A79
:1042E00030E010C011F01150020A01E15FD010C09F
:1042F00011F01150040A01E18ED01050080A01E1BA
:10430000C0D0F3D0116AD8900F012035106E11364D
:10431000126A900E1026540E1122000E122210C0A6
:10432000F6FF11C0F7FF12C0F8FF0900F5CF10F03B
:104330000900F5CF11F010500F017E2711507F2397
:10434000D4D039C77EFF0F017F6B116AD8900F015F
:104350002035106E1136126A900E1026540E11225E
:10436000000E122210C0F6FF11C0F7FF12C0F8FFB6
:104370000900F5CF10F00900F5CF11F010500F0132
:104380007E2711507F23070119510F017F5D04E142
:10439000070118510F017E5D09E30F017E510701EE
:1043A000396F18C77EFF19C77FFF9FD039C77EFFBF
:1043B0000F017F6B116AD8900F012035106E1136F6
:1043C000126A900E1026540E1122000E122210C0F6
:1043D000F6FF11C0F7FF12C0F8FF0900F5CF10F08B
:1043E0000900F5CF11F010500F017E2711507F23E7
:1043F00007011B510F017F5D04E107011A510F01F5
:104400007E5D09E30F017E510701396F1AC77EFFF8
:104410001BC77FFF6AD039C77EFF0F017F6B116A10
:10442000D8900F012035106E1136126A900E1026AA
:10443000540E1122000E122210C0F6FF11C0F7FF19
:1044400012C0F8FF0900F5CF10F00900F5CF11F008
:1044500010500F017E2711507F2307011D510F01BE
:104460007F5D04E107011C510F017E5DD8A03DD0A6
:104470000F017E510701396F1CC77EFF1DC77FFFEB
:1044800034D039C77EFF0F017F6B116AD8900F01BE
:104490002035106E1136126A900E1026540E11221D
:1044A000000E122210C0F6FF11C0F7FF12C0F8FF75
:1044B0000900F5CF10F00900F5CF11F010500F01F1
:1044C0007E2711507F2307011F510F017F5D04E1FB
:1044D00007011E510F017E5D08E30F017E510701A8
:1044E000396F1EC77EFF1FC77FFF0F0101AB09D0C9
:1044F0000701365106E00701106B116B020E070130
:10450000361B0F012151D8B444EF24F001ADACD0DB
:1045100024CF38F707013851ED6EFBEC33F0E92A70
:104520000F0109510F0B106E10C011F0115016E061
:1045300010C011F01150010A1AE010C011F0115012
:10454000020A01E133D010C011F01150040A01E158
:104550004CD01050080A01E167D096D107011451E0
:104560000701102707011551070111238DD13AC703
:1045700010F70701116B07011451070110270701FC
:10458000155107011123070119510701115D04E1BC
:10459000070118510701105D09E3070110510701D8
:1045A0003A6F18C710F719C711F76ED13AC710F74D
:1045B0000701116B0701145107011027070115515D
:1045C0000701112307011B510701115D04E10701D8
:1045D0001A510701105D09E30701105107013A6FF5
:1045E0001AC710F71BC711F74FD13AC710F70701C9
:1045F000116B07011451070110270701155107011D
:10460000112307011D510701115D04E107011C5130
:104610000701105D09E30701105107013A6F1CC73C
:1046200010F71DC711F730D13AC710F70701116B0A
:104630000701145107011027070115510701112324
:1046400007011F510F017F5D04E107011E510F019A
:104650007E5DD8A019D10701105107013A6F1EC71E
:1046600010F71FC711F710D10F0109510F0B106E72
:1046700010C011F0115016E010C011F01150010AD5
:1046800030E010C011F01150020A01E15FD010C0FB
:1046900011F01150040A01E18ED01050080A01E116
:1046A000BFD0F2D0116AD8900F012135106E1136AB
:1046B000126A900E1026540E1122000E122210C003
:1046C000F6FF11C0F7FF12C0F8FF0900F5CF10F098
:1046D0000900F5CF11F010500701102711501123D8
:1046E000D3D03AC710F70701116B116AD8900F01A8
:1046F0002135106E1136126A900E1026540E1122BA
:10470000000E122210C0F6FF11C0F7FF12C0F8FF12
:104710000900F5CF10F00900F5CF11F01050070196
:10472000102711501123070119510701115D04E1F0
:10473000070118510701105D09E307011051070136
:104740003A6F18C710F719C711F79ED03AC710F77C
:104750000701116B116AD8900F012135106E1136C7
:10476000126A900E1026540E1122000E122210C052
:10477000F6FF11C0F7FF12C0F8FF0900F5CF10F0E7
:104780000900F5CF11F01050070110271150112327
:1047900007011B510701115D04E107011A510701CF
:1047A000105D09E30701105107013A6F1AC710F7AE
:1047B0001BC711F769D03AC710F70701116B116ACF
:1047C000D8900F012135106E1136126A900E102606
:1047D000540E1122000E122210C0F6FF11C0F7FF76
:1047E00012C0F8FF0900F5CF10F00900F5CF11F065
:1047F0001050070110271150112307011D51070107
:10480000115D04E107011C510701105D09E3070177
:10481000105107013A6F1CC710F71DC711F734D0AC
:104820003AC710F70701116B116AD8900F012135B3
:10483000106E1136126A900E1026540E1122000EC0
:10484000122210C0F6FF11C0F7FF12C0F8FF0900D6
:10485000F5CF10F00900F5CF11F010500701102727
:104860001150112307011F510F017F5D04E1070162
:104870001E510F017E5D08E30701105107013A6FD9
:104880001EC710F71FC711F70F0102AB09D00701B0
:10489000365106E00701106B116B040E0701361B41
:1048A0000F012251D8B413EF26F001ADACD025CFC3
:1048B00038F707013851ED6EFBEC33F0E92A0F01B0
:1048C0000A510F0B106E10C011F0115016E010C0FD
:1048D00011F01150010A1AE010C011F01150020A33
:1048E00001E133D010C011F01150040A01E14CD0A5
:1048F0001050080A01E167D096D107011451070151
:10490000122707011551070113238DD13BC712F759
:104910000701136B070114510701122707011551F5
:1049200007011323070119510701135D04E1070172
:1049300018510701125D09E30701125107013B6F8E
:1049400018C712F719C713F76ED13BC712F7070143
:10495000136B0701145107011227070115510701B5
:10496000132307011B510701135D04E107011A51CD
:104970000701125D09E30701125107013B6F1AC7D6
:1049800012F71BC713F74FD13BC712F70701136B81
:1049900007011451070112270701155107011323BD
:1049A00007011D510701135D04E107011C510701B7
:1049B000125D09E30701125107013B6F1CC712F793
:1049C0001DC713F730D13BC712F70701136B07015F
:1049D000145107011227070115510701132307017D
:1049E0001F510701135D04E107011E510701125D0C
:1049F000D8A019D10701125107013B6F1EC712F74A
:104A00001FC713F710D10F010A510F0B106E10C002
:104A100011F0115016E010C011F01150010A30E0F1
:104A200010C011F01150020A01E15FD010C011F066
:104A30001150040A01E18ED01050080A01E1BFD0E4
:104A4000F2D0116AD8900F012235106E1136126A19
:104A5000900E1026540E1122000E122210C0F6FFE6
:104A600011C0F7FF12C0F8FF0900F5CF10F00900E0
:104A7000F5CF11F010500701122711501323D3D096
:104A80003BC712F70701136B116AD8900F0122354B
:104A9000106E1136126A900E1026540E1122000E5E
:104AA000122210C0F6FF11C0F7FF12C0F8FF090074
:104AB000F5CF10F00900F5CF11F0105007011227C3
:104AC00011501323070119510701135D04E1070178
:104AD00018510701125D09E30701125107013B6FED
:104AE00018C712F719C713F79ED03BC712F7070173
:104AF000136B116AD8900F012235106E1136126AAD
:104B0000900E1026540E1122000E122210C0F6FF35
:104B100011C0F7FF12C0F8FF0900F5CF10F009002F
:104B2000F5CF11F010500701122711501323070180
:104B30001B510701135D04E107011A510701125DC2
:104B400009E30701125107013B6F1AC712F71BC790
:104B500013F769D03BC712F70701136B116AD8909E
:104B60000F012235106E1136126A900E1026540E67
:104B70001122000E122210C0F6FF11C0F7FF12C062
:104B8000F8FF0900F5CF10F00900F5CF11F0105033
:104B9000070112271150132307011D510701135D4F
:104BA00004E107011C510701125D09E307011251DD
:104BB00007013B6F1CC712F71DC713F734D03BC763
:104BC00012F70701136B116AD8900F012235106E8E
:104BD0001136126A900E1026540E1122000E122267
:104BE00010C0F6FF11C0F7FF12C0F8FF0900F5CFA3
:104BF00010F00900F5CF11F01050070112271150E5
:104C0000132307011F510701135D04E107011E5122
:104C10000701125D08E30701125107013B6F1EC730
:104C200012F71FC713F7ECCF12F0ECCF11F0ECCF57
:104C300010F0120010C0EDFF11C0EDFF12C0EDFF2B
:104C400013C0EDFF14C0EDFF15C0EDFF16C0EDFF62
:104C5000106A07013DB1102A1050010A09E107014D
:104C60003EB906D03E893E51F00B01093E6F10D08F
:104C700007013DB10DD0106A07013EB9102A10504E
:104C8000010A06E107013E993E51F00B04093E6F0F
:104C9000106A07013DB1102A1050010BE838F46E7C
:104CA00007013E51EF0BF4103E6FD8900701193108
:104CB000116E1831106E07013E510F0B126E12C0AB
:104CC00013F01350800F7B0FD8B0D3D017C0EDFF77
:104CD00018C0EDFF186A12341836E8341836FC0B89
:104CE000176E000EFB6E4D0EFA6E020E1726185050
:104CF000FA22D8B0FB2A1750ECCF18F0ECCF17F0FF
:104D0000F96E8BEF26F08EEF26F0C4EF26F005EF5C
:104D100027F00EEF27F0106A116AABD00F0103A144
:104D200006D00F017E51126E12500F01106F136AE0
:104D3000D8900F011035126E1336146A900E122699
:104D4000580E1322000E142212C0F6FF13C0F7FFF4
:104D500014C0F8FF0900F5CF12F00900F5CF13F0E9
:104D6000105012261150132212C010F013C011F06F
:104D700013AE7FD0FF0E106E7F0E116E07013E51F5
:104D8000F00B02093E6F75D00F0104A106D00F0190
:104D90007E51126E12500F01146F18CF12F0136A69
:104DA00013301230156E146A1432136AD8900F0142
:104DB0001435126E1336166A900E1226580E1322F0
:104DC000000E162212C0F6FF13C0F7FF16C0F8FF40
:104DD0000900F5CF12F00900F5CF13F01250105C66
:104DE000126E13501158136E12C010F013C011F050
:104DF0001350155C02E11250145C02E211AE39D07E
:104E000014C010F015C011F034D01CCF12F0136A8A
:104E100013301230116E106A10322BD0136AD890F2
:104E20000F011C35126E1336146A900E1226580E9E
:104E30001322000E142212C0F6FF13C0F7FF14C095
:104E4000F8FF0900F5CF12F00900F5CF13F012506A
:104E5000105C126E13501158136E12C010F013C074
:104E600011F013AE06D0106A116A07013E51F00B23
:104E70003E6F10500701186F18271134196F0F017A
:104E800005B1FCD0106A07013FB1102A1050010A89
:104E900009E1070140B906D040894051F00B0109F2
:104EA000406F10D007013FB10DD0106A070140B923
:104EB000102A1050010A06E1070140994051F00BF9
:104EC0000409406F106A07013FB1102A1050010B0E
:104ED000E838F46E07014051EF0BF410406FD890A2
:104EE00007011B31116E1A31106E070140510F0B73
:104EF000126E12C013F01350800F7B0FD8B0BED0CB
:104F000017C0EDFF18C0EDFF186A12341836E834E8
:104F10001836FC0B176E000EFB6E4F0EFA6E360E37
:104F200017261850FA22D8B0FB2A1750ECCF18F0E9
:104F3000ECCF17F0F96EA5EF27F0A6EF27F0D6EF2C
:104F400027F016EF28F019EF28F098D00F0103A3EF
:104F500006D00F017E51126E12500F01116F11CF4A
:104F600046F7136AD89007014635126E1336146A55
:104F7000900E1226580E1322000E142212C0F6FFB5
:104F800013C0F7FF14C0F8FF0900F5CF12F00900B5
:104F9000F5CF13F0105012261150132213AE6ED01D
:104FA00007014051F00B0209406F68D00F0104A3C4
:104FB00006D00F017E51126E12500F01156F19CFDE
:104FC00047F747C712F0136A13301230156E146A90
:104FD000143215CF48F7136AD89007014835126E7E
:104FE0001336166A900E1226580E1322000E162241
:104FF00012C0F6FF13C0F7FF16C0F8FF0900F5CF87
:1050000012F00900F5CF13F01250105C126E13501D
:105010001158136E12C010F013C011F01350155C2C
:1050200002E11250145C2AE211BE28D019CFE8FF29
:1050300025D01DCF49F7136AD89007014935126E64
:105040001336146A900E1226580E1322000E1422E4
:1050500012C0F6FF13C0F7FF14C0F8FF0900F5CF28
:1050600012F00900F5CF13F01250105E1350115AD0
:1050700011AE04D007014051F00B406F106A0701D8
:1050800041B1102A1050010A09E1070142B906D0C6
:1050900042894251F00B0109426F10D0070141B122
:1050A0000DD0106A070142B9102A1050010A06E11A
:1050B000070142994251F00B0409426F106A07013F
:1050C00041B1102A1050010BE838F46E070142512B
:1050D000EF0BF410426FD89007011D31116E1C3197
:1050E000106E070142510F0B126E12C013F01350D5
:1050F000800F7B0FD8B0BED017C0EDFF18C0EDFFFA
:10510000186A12341836E8341836FC0B176E000E85
:10511000FB6E510EFA6E2E0E17261850FA22D8B0DA
:10512000FB2A1750ECCF18F0ECCF17F0F96EA1EF77
:1051300028F0A2EF28F0D2EF28F012EF29F015EFB7
:1051400029F098D00F0103A506D00F017E51126EF1
:1051500012500F01126F12CF4BF7136AD89007014C
:105160004B35126E1336146A900E1226580E132207
:10517000000E142212C0F6FF13C0F7FF14C0F8FF90
:105180000900F5CF12F00900F5CF13F010501226E8
:105190001150132213AE6ED007014251F00B0209D9
:1051A000426F68D00F0104A506D00F017E51126E28
:1051B00012500F01166F1ACF4CF74CC712F0136A3A
:1051C00013301230156E146A143216CF4DF7136A6D
:1051D000D89007014D35126E1336166A900E1226BE
:1051E000580E1322000E162212C0F6FF13C0F7FF4E
:1051F00016C0F8FF0900F5CF12F00900F5CF13F043
:105200001250105C126E13501158136E12C010F031
:1052100013C011F01350155C02E11250145C2AE225
:1052200011BE28D01ACFE8FF25D01ECF4EF7136A43
:10523000D89007014E35126E1336146A900E12265E
:10524000580E1322000E142212C0F6FF13C0F7FFEF
:1052500014C0F8FF0900F5CF12F00900F5CF13F0E4
:105260001250105E1350115A11AE04D00701425172
:10527000F00B426F0F0105B3FCD0106A070143B178
:10528000102A1050010A09E1070144B906D04489E7
:105290004451F00B0109446F10D0070143B10DD008
:1052A000106A070144B9102A1050010A06E10701EB
:1052B00044994451F00B0409446F106A070143B14B
:1052C000102A1050010BE838F46E07014451EF0B1F
:1052D000F410446FD89007011F31116E1E31106E0B
:1052E000070144510F0B126E12C013F01350800FC0
:1052F0007B0FD8B0BED017C0EDFF18C0EDFF186A05
:1053000012341836E8341836FC0B176E000EFB6E9C
:10531000530EFA6E2C0E17261850FA22D8B0FB2A1C
:105320001750ECCF18F0ECCF17F0F96EA0EF29F082
:10533000A1EF29F0D1EF29F011EF2AF014EF2AF0B4
:1053400098D00F0103A706D00F017E51126E1250A4
:105350000F01136F13CF50F7136AD8900701503520
:10536000126E1336146A900E1226580E1322000E77
:10537000142212C0F6FF13C0F7FF14C0F8FF090093
:10538000F5CF12F00900F5CF13F01050122611508E
:10539000132213AE6ED007014451F00B0209446F83
:1053A00068D00F0104A706D00F017E51126E125073
:1053B0000F01176F1BCF51F751C712F0136A13304B
:1053C0001230156E146A143217CF52F7136AD89040
:1053D00007015235126E1336166A900E1226580EB9
:1053E0001322000E162212C0F6FF13C0F7FF16C0DC
:1053F000F8FF0900F5CF12F00900F5CF13F01250B5
:10540000105C126E13501158136E12C010F013C0BE
:1054100011F01350155C02E11250145C2AE211BE27
:1054200028D01BCFE8FF25D01FCF53F7136AD890A1
:1054300007015335126E1336146A900E1226580E59
:105440001322000E142212C0F6FF13C0F7FF14C07F
:10545000F8FF0900F5CF12F00900F5CF13F0125054
:10546000105E1350115A11AE04D007014451F00BD5
:10547000446FECCF16F0ECCF15F0ECCF14F0ECCF7E
:1054800013F0ECCF12F0ECCF11F0ECCF10F01200D3
:1054900000000100020003000400060007000800ED
:1054A0000A000B000C000E000F0011001200140087
:1054B0001500170019001A001C001E001F00210013
:1054C00023002500270029002A002C002E00300090
:1054D00033003500370039003B003E0040004200F9
:1054E000450047004A004C004F005100540057004F
:1054F00059005C005F006200650068006B006E0090
:105500007200750078007C007F00820086008A00AF
:105510008D009100950099009D00A100A500A900B3
:10552000AD00B200B600BB00BF00C400C900CE0091
:10553000D300D800DD00E200E700ED00F200F80043
:10554000FD00030109010F0115011B0122012801C2
:105550002F0136013C0143014A015201590160010A
:105560006801700178018001880190019901A10111
:10557000AA01B301BC01C501CF01D801E201EC01D0
:10558000F60101020B02160221022C02370243022D
:105590004E025A02660273027F028C029902A60230
:1055A000B402C202D002DE02EC02FB020A031A03BA
:1055B0002903390349035A036B037C038D039F03BB
:1055C000B103C303D603E903FC0310042404390424
:1055D0004D04630478048E04A504BB04D304EA04D8
:1055E00002051B0534054D05670581059C05B705BA
:1055F000D305EF050C062906470666068506A406B0
:10560000C406E506060728074B076E079107B6078D
:10561000DB07010827084E0876089E08C808F2082C
:105620001C0948097409A209D009FE092E0A5F0A5B
:10563000900AC20AF50A2A0B5F0B950BCC0B040CDF
:105640003D0C770CB20CEE0C2C0D6A0DAA0DEB0D77
:105650002C0E700EB40EF90E400F880FD20F1D10D5
:105660006910B61005115511A711FA114F12A612A3
:10567000FE125713B2130F146D14CE143015931578
:10568000F9156016C9163417A21711188218F518E3
:10569000000000000000000000000000000000000A
:1056A00000000000000000000000000000000000FA
:1056B00000000000000000000000000000000000EA
:1056C00000000000000000000000000000000000DA
:1056D00000000000000000000000000000000000CA
:1056E00000000000000000000000000000000000BA
:1056F0003400350036003700380039003A003C00ED
:105700003D003E003F004000410042004300440095
:1057100045004600480049004A004B004C004D003F
:105720004E004F00500051005300540055005600E9
:105730005700580059005A005B005C005D005F0094
:10574000600061006200630064006500660067003D
:10575000680069006B006C006D006E006F007000E7
:105760007100720073007400750077007800790092
:105770007A007B007C007D007E007F00800081003D
:1057800083008400850086008700880089008A00E5
:105790008B008C008D008F00900091009200930090
:1057A000940095009600970098009A009B009C003A
:1057B0009D009E009F00A000A100A200A300A400E5
:1057C000A600A700A800A900AA00AB00AC00AD008D
:1057D000AE00AF00B000B200B300B400B500B60038
:1057E000B700B800B900BA00BB00BC00BE00BF00E3
:1057F000C000C100C200C300C400C500C600C7008D
:10580000C800CA00CB00CC00CD00CE00CF00D00035
:10581000D100D200D300D400D600D700D800D900E0
:10582000DA00DB00DC00DD00DE00DF00E100E2008A
:10583000E300E400E500E600E700E800E900EA0034
:10584000EB00ED00EE00EF00F000F100F200F300DD
:10585000F400F500F600F700F900FA00FB00FC0088
:10586000FD00FE00FF00000101010201030105012E
:1058700006010701080109010A010B010C010D01D4
:105880000E010F011101120113011401150116017E
:105890000000008000800080008000800080008088
:1058A000EF63F24EEF3FD434612CCE259620611C7D
:1058B000EF181416B013AA11EF0F720E280D080C72
:1058C0000C0B2D0A6709B70819088B070C079806F7
:1058D0002F06D00578052905DF049C045E04240406
:1058E000EF03BE03900365033E031803F602D502DF
:1058F000B6029A027F0265024D02370221020D02B2
:10590000FA01E801D601C601B601A8019A018C018D
:105910007F01730167015C01520148013E013401BE
:105920002B0123011B0113010B010401FD00F600F3
:10593000EF00E900E300DD00D800D200CD00C80090
:10594000C300BE00BA00B500B100AD00A900A500BB
:10595000A1009E009A009700940090008D008A009C
:105960008700840082007F007C007A007700750049
:10597000720070006E006C006A00680066006400CF
:10598000620060005E005C005B005900570056003A
:1059900054005200510050004E004D004B004A0090
:1059A00049004700460045004400430041004000D4
:1059B0003F003E003D003C003B003A00390038000B
:1059C0003700360035003500340033003200310036
:1059D000310030002F002E002D002D002C002B0058
:1059E0002B002A0029002900280027002700260074
:1059F0002600250025002400230023002200220089
:105A000021002100200020001F001F001E001E009A
:105A10001E001D001D001C001C001B001B001B00A5
:105A20001A001A00190019001900180018001800AF
:105A300017001700170016001600160015001500B5
:105A400015001400140014001400130013001300B8
:105A500012001200120012001100110011001100BA
:105A6000100010001000100010000F000F000F00B9
:105A70000F000E000E000E000E000E000D000D00B7
:105A80000D000D000D000C000C000C000C000C00B3
:105A9000808386898C8F9295989C9FA2A5A8ABAE97
:105AA000B0B3B6B9BCBFC1C4C7C9CCCED1D3D5D8A9
:105AB000DADCDEE0E2E4E6E8EAECEDEFF0F2F3F562
:105AC000F6F7F8F9FAFBFCFCFDFEFEFFFFFFFFFF17
:105AD000FFFFFFFFFFFFFEFEFDFCFCFBFAF9F8F7FE
:105AE000F6F5F3F2F0EFEDECEAE8E6E4E2E0DEDC16
:105AF000DAD8D5D3D1CECCC9C7C4C1BFBCB9B6B32F
:105B0000B0AEABA8A5A29F9C9895928F8C898683F6
:105B1000807D7A7774716E6B6864615E5B585552F4
:105B2000504D4A4744413F3C393734322F2D2B28C2
:105B3000262422201E1C1A1816141311100E0D0BE9
:105B40000A09080706050404030202010101010114
:105B5000010101010101020203040405060708090D
:105B60000A0B0D0E1011131416181A1C1E202224D5
:105B700026282B2D2F323437393C3F4144474A4D9C
:105B8000505255585B5E6164686B6E7174777A7DB4
:105B9000FAFBFCFDFEFFFFFFFFFFFFFFFFFFFFFF24
:105BA000FFFFFFFFFFFFFFFFFFFFFFFFFFFFFFFF05
:105BB000FFFFFFFFFFFFFFFFFFFFFFFFFFFFFFFFF5
:105BC000FFFFFFFFFFFFFFFFFFFFFFFFFFFFFFFFE5
:105BD000FFFFFFFFFFFFFFFFFFFFFFFFFFFFFFFFD5
:105BE000FFFFFFFFFFFFFFFFFFFFFFFFFFFFFFFFC5
:105BF000FFFFFFFFFFFFFFFFFFFFFFFFFFFFFFFFB5
:105C0000FFFFFFFFFFFFFFFFFFFFFFFEFDFCFBFAB3
:105C10000605040302010101010101010101010165
:105C20000101010101010101010101010101010164
:105C30000101010101010101010101010101010154
:105C40000101010101010101010101010101010144
:105C50000101010101010101010101010101010134
:105C60000101010101010101010101010101010124
:105C70000101010101010101010101010101010114
:105C800001010101010101010101010203040506F5
:105C9000D9CFEDFFE9CFD9FF10C0EDFF11C0EDFF67
:105CA00012C0EDFF13C0EDFF106E020EDBCF11F03E
:105CB000080E105CD8B068EF31F014C0EDFF15C0CD
:105CC000EDFF156A10341536E8341536FC0B146EEA
:105CD000000EFB6E5C0EFA6EF00E14261550FA22C2
:105CE000D8B0FB2A1450ECCF15F0ECCF14F0F96EBD
:105CF00088EF2EF0CFEF2EF016EF2FF053EF2FF0AE
:105D000090EF2FF080EF30F0CFEF30F01EEF31F05A
:105D10000F010351FF0B106E265110161050D8A41E
:105D200068EF31F032C710F0126A100E10260F0E15
:105D3000122210C0E1FF12C0E2FFE7CF10F010C046
:105D40007AFF0F017B6B0F0E126E7A0E106E800EB3
:105D5000136E000EED6EFF0EED6E1350ED6E1250D1
:105D6000ED6E1050ED6E1150D3EC3CF0106E050E40
:105D7000E9261050D8B468EF31F032C710F0126A3B
:105D8000100E10260F0E12220F017A51136E10C042
:105D9000E1FF12C0E2FF13C0E7FF68EF31F00F012F
:105DA0000451FF0B106E265110161050D8A468EF46
:105DB00031F032C710F0126A140E10260F0E1222A4
:105DC00010C0E1FF12C0E2FFE7CF10F010C07AFF71
:105DD0000F017B6B0F0E126E7A0E106E800E136E1B
:105DE000000EED6EFF0EED6E1350ED6E1250ED6E67
:105DF0001050ED6E1150D3EC3CF0106E050EE926FC
:105E00001050D8B468EF31F032C710F0126A140E97
:105E100010260F0E12220F017A51136E10C0E1FFEF
:105E200012C0E2FF13C0E7FF68EF31F032C710F095
:105E3000126A180E10260F0E122210C0E1FF12C0B7
:105E4000E2FFE7CF10F010C07AFF0F017B6B0F0E5F
:105E5000126E7A0E106E800E136E000EED6EFF0E37
:105E6000ED6E1350ED6E1250ED6E1050ED6E115040
:105E7000D3EC3CF0106E050EE9261050D8B468EF54
:105E800031F032C710F0126A180E10260F0E1222CF
:105E90000F017A51136E10C0E1FF12C0E2FF13C070
:105EA000E7FF68EF31F032C710F0126A1C0E1026BF
:105EB0000F0E122210C0E1FF12C0E2FFE7CF10F078
:105EC00010C07AFF0F017B6B0F0E126E7A0E106EF0
:105ED000800E136E000EED6EFF0EED6E1350ED6E24
:105EE0001250ED6E1050ED6E1150D3EC3CF0106E70
:105EF000050EE9261050D8B468EF31F032C710F023
:105F0000126A1C0E10260F0E12220F017A51136E08
:105F100010C0E1FF12C0E2FF13C0E7FF68EF31F0ED
:105F20000F01725126E027CF7CFF0F017D6B0F0E12
:105F3000126E7C0E106E800E136E000EED6EFF0E54
:105F4000ED6E1350ED6E1250ED6E1050ED6E11505F
:105F5000D3EC3CF0106E050EE9261050D8B4B8D141
:105F60000F017C51106E10500F01276F07012E8515
:105F7000AFD132C710F0040E105CD8B0A9D114C054
:105F8000EDFF15C0EDFF156A10341536E8341536EF
:105F9000FC0B146E000EFB6E5F0EFA6EB40E142630
:105FA0001550FA22D8B0FB2A1450ECCF15F0ECCFE4
:105FB00014F0F96EE2EF2FF008EF30F030EF30F030
:105FC00058EF30F00CCF7CFF0F017D6B0F0E126E7F
:105FD0007C0E106E800E136E000EED6E0F0EED6EC9
:105FE0001350ED6E1250ED6E1050ED6E1150D3EC5B
:105FF0003CF0106E050EE9261050D8B469D10F019F
:106000007C51106E10500F010C6F07012E8560D16E
:106010000DCF34F734C77CFF0F017D6B0F0E126E6E
:106020007C0E106E800E136E000EED6E0F0EED6E78
:106030001350ED6E1250ED6E1050ED6E1150D3EC0A
:106040003CF0106E050EE9261050D8B441D10F0176
:106050007C51106E10500F010D6F07012E8538D145
:106060000ECF36F736C77CFF0F017D6B0F0E126E19
:106070007C0E106E800E136E000EED6E0F0EED6E28
:106080001350ED6E1250ED6E1050ED6E1150D3ECBA
:106090003CF0106E050EE9261050D8B419D10F014E
:1060A0007C51106E10500F010E6F07012E8510D11C
:1060B0000FCF38F738C77CFF0F017D6B0F0E126EC4
:1060C0007C0E106E800E136E000EED6E0F0EED6ED8
:1060D0001350ED6E1250ED6E1050ED6E1150D3EC6A
:1060E0003CF0106E050EE9261050D8B4F1D00F0127
:1060F0007C51106E10500F010F6F07012E85E8D0F4
:106100000F0100B9E5D000AD26D023CF7AFF0F01F3
:106110007B6B0F0E126E7A0E106E800E136E000ED9
:10612000ED6E0A0EED6E1350ED6E1250ED6E1050C6
:10613000ED6E1150D3EC3CF0106E050EE9261050B8
:10614000D8B4C6D00F017A51106E10500F01236FD2
:1061500007012E85BDD020CF7AFF0F017B6B0F0E7C
:10616000126E7A0E106E800E136E000EED6EFF0E24
:10617000ED6E1350ED6E1250ED6E1050ED6E11502D
:10618000D3EC3CF0106E050EE9261050D8B4A0D028
:106190000F017A51106E10500F01206F99D00F012E
:1061A00001B996D001AD26D024CF7AFF0F017B6BC9
:1061B0000F0E126E7A0E106E800E136E000EED6EC4
:1061C0000A0EED6E1350ED6E1250ED6E1050ED6E26
:1061D0001150D3EC3CF0106E050EE9261050D8B4E7
:1061E00077D00F017A51106E10500F01246F070104
:1061F0002E856ED021CF7AFF0F017B6B0F0E126EB2
:106200007A0E106E800E136E000EED6EFF0EED6EA8
:106210001350ED6E1250ED6E1050ED6E1150D3EC28
:106220003CF0106E050EE9261050D8B451D00F0185
:106230007A51106E10500F01216F4AD00F0102AD3C
:1062400025D025CF7AFF0F017B6B0F0E126E7A0ED1
:10625000106E800E136E000EED6E0A0EED6E135072
:10626000ED6E1250ED6E1050ED6E1150D3EC3CF00F
:10627000106E050EE92610502BE00F017A51106EBA
:1062800010500F01256F07012E8522D022CF7AFFF3
:106290000F017B6B0F0E126E7A0E106E800E136E56
:1062A000000EED6EFF0EED6E1350ED6E1250ED6EA2
:1062B0001050ED6E1150D3EC3CF0106E050EE92637
:1062C000105006E00F017A51106E10500F01226F2E
:1062D000ECCF13F0ECCF12F0ECCF11F0ECCF10F0CC
:1062E000ECCFD9FF120010C0EDFF11C0EDFF12C0BE
:1062F000EDFF13C0EDFF000E0701516F0F010051BC
:106300000F0B106E10C011F01150010A09E010C0FF
:1063100011F01150020A0FE01050040A2EE04ED086
:106320000F017F51ED6E7E51ED6E000E8FEC38F057
:10633000020EE92643D00F017F51106E116A126AD6
:10634000900E10265A0E1122000E122210C0F6FFD7
:1063500011C0F7FF12C0F8FF0900F5CF10F0116A65
:106360001050136E126A1350ED6E1250ED6E000E47
:106370008FEC38F0020EE92621D00F017F51106E0C
:10638000116A126A900E10265B0E1122000E122264
:1063900010C0F6FF11C0F7FF12C0F8FF0900F5CFDB
:1063A00010F0116A1050136E126A1350ED6E1250F5
:1063B000ED6E000E8FEC38F0020EE9260F0100A9F9
:1063C00007D007011151106E116A10500F01206F94
:1063D0000F0101510F0B106E10C011F01150010A86
:1063E00009E010C011F01150020A0FE01050040A29
:1063F0002EE04ED007011151ED6E1051ED6E010EE1
:106400008FEC38F0020EE92643D007011151106ECF
:10641000116A126A900E10265A0E1122000E1222D4
:1064200010C0F6FF11C0F7FF12C0F8FF0900F5CF4A
:1064300010F0116A1050136E126A1350ED6E125064
:10644000ED6E010E8FEC38F0020EE92621D0070127
:106450001151106E116A126A900E10265B0E1122F5
:10646000000E122210C0F6FF11C0F7FF12C0F8FF95
:106470000900F5CF10F0116A1050136E126A135014
:10648000ED6E1250ED6E010E8FEC38F0020EE92623
:106490000F0101A907D007011351106E116A1050A6
:1064A0000F01216F0F010251070B106E10C011F088
:1064B0001150010A09E010C011F01150020A0FE05A
:1064C0001050040A2EE04ED007011351ED6E125108
:1064D000ED6E020E8FEC38F0020EE92643D0070174
:1064E0001351106E116A126A900E10265A0E112264
:1064F000000E122210C0F6FF11C0F7FF12C0F8FF05
:106500000900F5CF10F0116A1050136E126A135083
:10651000ED6E1250ED6E020E8FEC38F0020EE92691
:1065200021D007011351106E116A126A900E1026C5
:106530005B0E1122000E122210C0F6FF11C0F7FFF1
:1065400012C0F8FF0900F5CF10F0116A1050136E59
:10655000126A1350ED6E1250ED6E020E8FEC38F091
:10656000020EE92607011951ED6E1851ED6E030E6A
:106570008FEC38F0020EE9260F0107B119D00CCFCD
:1065800010F0000E1024116E126A070E1222E86A33
:1065900011C0E1FF12C0E2FFE7BEE82A116E115000
:1065A000010BF46E07013D51FE0BF4103D6F0CD052
:1065B000116A0F0107B9112A1150010BF46E07017E
:1065C0003D51FE0BF4103D6F0F0105A135D00701C1
:1065D0001951ED6E1851ED6E040E8FEC38F0020E6D
:1065E000E9260F0107A102D007B319D00CCF10F094
:1065F000000E1024116E126A070E1222E86A11C0F2
:10660000E1FF12C0E2FFE7BEE82A116E1150010B54
:10661000F46E07013F51FE0BF4103F6F3FD0116A3B
:106620000F0107B9112A1150010BF46E07013F51F8
:10663000FE0BF4103F6F32D007011B51ED6E1A5163
:10664000ED6E040E8FEC38F0020EE9260F0107B351
:1066500019D00DCF10F0000E1024116E126A070E23
:106660001222E86A11C0E1FF12C0E2FFE7BEE82A89
:10667000116E1150010BF46E07013F51FE0BF41027
:106680003F6F0CD0116A0F0107B9112A1150010B8D
:10669000F46E07013F51FE0BF4103F6F07011D51CF
:1066A000ED6E1C51ED6E050E8FEC38F0020EE926F2
:1066B0000F0107B519D00ECF10F0000E1024116E87
:1066C000126A070E1222E86A11C0E1FF12C0E2FF4F
:1066D000E7BEE82A116E1150010BF46E070141511B
:1066E000FE0BF410416F0CD0116A0F0107BD112A87
:1066F0001150010BF46E07014151FE0BF410416F74
:106700000F0105A335D007011D51ED6E1C51ED6E33
:10671000060E8FEC38F0020EE9260F0107A502D015
:1067200007B719D00ECF10F0000E1024116E126AA8
:10673000070E1222E86A11C0E1FF12C0E2FFE7BEB5
:10674000E82A116E1150010BF46E07014351FE0B44
:10675000F410436F3ED0116A0F0107BD112A11508A
:10676000010BF46E07014351FE0BF410436F31D05F
:1067700007011F51ED6E1E51ED6E060E8FEC38F0C5
:10678000020EE9260F0107B718D00FCF10F0116ADB
:10679000000E1026070E1122E86A10C0E1FF11C09A
:1067A000E2FFE7BEE82A106E1050010BF46E0701FD
:1067B0004351FE0BF410436F0CD0106A0F0107BF5A
:1067C000102A1050010BF46E07014151FE0BF4101A
:1067D000416F14EC38F007015151FF0B106E10504F
:1067E00003EC38F0ECCF13F0ECCF12F0ECCF11F05B
:1067F000ECCF10F01200D9CFEDFFE9CFD9FF10C0D8
:10680000EDFF11C0EDFF12C0EDFF020EDBCF3CF734
:10681000116AD8900F012735106E1136126A900E4A
:106820001026560E1122000E122210C0F6FF11C0C3
:10683000F7FF12C0F8FF0900F5CF16F70900F5CFF2
:1068400017F73CC710F00B0E105CD8B0BFD013C0C8
:10685000EDFF14C0EDFF146A10341436E83414361A
:10686000FC0B136E000EFB6E680EFA6E840E132680
:106870001450FA22D8B0FB2A1350ECCF14F0ECCF0E
:1068800013F0F96E58EF34F067EF34F076EF34F030
:1068900083EF34F093EF34F0A0EF34F0AAEF34F04C
:1068A000B3EF34F0BDEF34F0CAEF34F0DAEF34F088
:1068B000070117310701156F1431146F15331433A5
:1068C0001531C00B1419141B1419156F7FD0070153
:1068D0001739F00B0701156F070116390701146FFF
:1068E0000F0B141B15271437153770D007011739F4
:1068F000F00B0701156F070116390701146F0F0B15
:10690000141B152763D0070116510701146F1427B4
:10691000070117350701156FD89014371537D89030
:106920001437153753D0070116510701146F142778
:10693000070117350701156FD8901437153746D062
:10694000070116510701146F1427070117350701B6
:10695000156F3CD0070117510701156F070116513C
:106960000701146F33D0D890070117310701156F55
:10697000070116310701146F29D0D890070117318C
:106980000701156F070116310701146FD8901533F1
:1069900014331CD0D890070117310701156F070178
:1069A00016310701146FD89015331433D89015336E
:1069B00014330CD0070116390F0B0701146F0701B0
:1069C00017390701156FF00B151B1427ECCF12F0C8
:1069D000ECCF11F0ECCF10F0ECCFD9FF1200D9CFF3
:1069E000EDFFE9CFD9FF10C0EDFF11C0EDFF12C0E0
:1069F000EDFF0701316F31C710F00C0E105CD8B0FD
:106A0000D8D013C0EDFF14C0EDFF146A1034143653
:106A1000E8341436FC0B136E000EFB6E6A0EFA6E31
:106A2000380E13261450FA22D8B0FB2A1350ECCF9C
:106A300014F0ECCF13F0F96E34EF35F043EF35F08E
:106A400052EF35F061EF35F0D9EF35F070EF35F0FA
:106A50007FEF35F08EEF35F09DEF35F0ACEF35F090
:106A6000BBEF35F0CAEF35F0000E126E750E116EE9
:106A70000C0E106E1250ED6E1150ED6E1050B1EC08
:106A80003CF0020EE926000E126E750E116E120E0B
:106A9000106E1250ED6E1150ED6E1050B1EC3CF0D6
:106AA000020EE926000E126E750E116E180E106E93
:106AB0001250ED6E1150ED6E1050B1EC3CF0020E24
:106AC000E926000E126E750E116E1E0E106E12501B
:106AD000ED6E1150ED6E1050B1EC3CF0020EE92657
:106AE000000E126E750E116E240E106E1250ED6EA9
:106AF0001150ED6E1050B1EC3CF0020EE926000E84
:106B0000126E750E116E2A0E106E1250ED6E11502F
:106B1000ED6E1050B1EC3CF0020EE926000E126E44
:106B2000750E116E300E106E1250ED6E1150ED6E2E
:106B30001050B1EC3CF0020EE926000E126E750EFC
:106B4000116E360E106E1250ED6E1150ED6E10502B
:106B5000B1EC3CF0020EE926000E126E750E116EBD
:106B60003A0E106E1250ED6E1150ED6E1050B1ECE9
:106B70003CF0020EE926000E126E750E116E3E0EEE
:106B8000106E1250ED6E1150ED6E1050B1EC3CF0E5
:106B9000020EE926000E126E750E116E420E106E78
:106BA0001250ED6E1150ED6E1050B1EC3CF0020E33
:106BB000E926ECCF12F0ECCF11F0ECCF10F0ECCFD7
:106BC000D9FF1200D9CFEDFFE9CFD9FF10C0EDFFFB
:106BD00011C0EDFF12C0EDFF07012A6F020EDBCFDF
:106BE0002BF7030EDBCF2CF7040EDBCF2DF72AC7D4
:106BF00010F02BC711F0105003E11150100A10E0F3
:106C0000105003E11150200A19E0105003E1115017
:106C1000300A22E0105003E11150400A2BE037D037
:106C2000060E66EC16F0106EF00E10161080105066
:106C3000ED6E060EE7EC3DF0E92A29D0060E66EC73
:106C400016F0106EF00E101610821050ED6E060E3B
:106C5000E7EC3DF0E92A1BD0060E66EC16F0106E4C
:106C6000F00E101610841050ED6E060EE7EC3DF09D
:106C7000E92A0DD0060E66EC16F0106EF00E101616
:106C800010861050ED6E060EE7EC3DF0E92A2CC799
:106C900011F02DC712F0115003E11250010A10E05B
:106CA000115003E11250020A19E0115003E1125091
:106CB000030A22E0115003E11250040A2BE037D0FE
:106CC000050E66EC16F0106E0F0E101610881050A0
:106CD000ED6E050EE7EC3DF0E92A29D0050E66ECD5
:106CE00016F0106E0F0E1016108A1050ED6E050E75
:106CF000E7EC3DF0E92A1BD0050E66EC16F0106EAD
:106D00000F0E1016108C1050ED6E050EE7EC3DF0D6
:106D1000E92A0DD0050E66EC16F0106E0F0E101657
:106D2000108E1050ED6E050EE7EC3DF0E92A0701DC
:106D3000546BECCF12F0ECCF11F0ECCF10F0ECCFA5
:106D4000D9FF120010C0EDFF11C0EDFF12C0EDFF22
:106D5000000EED6E000EB7EC3DF0106EE92A1050FB
:106D6000330A01E18CD0000E0F010B6F010E006F92
:106D7000010E016F010E026F010E266F000E036FF0
:106D8000000E046F000E056F000E066F000E076FF9
:106D9000000E086F000E096F000E0A6F106A040ED5
:106DA000105C0EE20C0E1024116E126A0F0E1222ED
:106DB00011C0E1FF12C0E2FF010EE76E102AEFD70B
:106DC000106A040E105C0EE2100E1024116E126A8E
:106DD0000F0E122211C0E1FF12C0E2FF400EE76E5B
:106DE000102AEFD7106A040E105C0EE2140E102465
:106DF000116E126A0F0E122211C0E1FF12C0E2FFE3
:106E0000400EE76E102AEFD7106A040E105C0EE2F7
:106E1000180E1024116E126A0F0E122211C0E1FF1B
:106E200012C0E2FF800EE76E102AEFD7106A040E40
:106E3000105C0EE21C0E1024116E126A0F0E12224C
:106E400011C0E1FF12C0E2FF400EE76E102AEFD73B
:106E5000800E0F01206F800E216F800E226F740E46
:106E6000276F060E236F060E246F060E256F010E88
:106E7000266F0701526B010E0701536F19D0000EE8
:106E8000ED6E010EB7EC3DF0106EE92A10C076FFF2
:106E90000F01776B000EED6E020EB7EC3DF0106E39
:106EA000E92A10C078FF0F01796B010E0701526FBC
:106EB000ECCF12F0ECCF11F0ECCF10F01200D9CFE4
:106EC000EDFFE9CFD9FF10C0EDFF11C0EDFF12C0FB
:106ED000EDFF13C0EDFF14C0EDFF15C0EDFF16C0B0
:106EE000EDFF17C0EDFF020EDBCF10F0030EDBCF7E
:106EF00011F0040EDBCF12F0F00E1014136E0F0E13
:106F000010161350800A16E01350900A14E0135024
:106F1000A00A01E160D01350B00A34E01350C00A57
:106F200001E159D01350D00A01E155D01350E00AC5
:106F300038E051D0126A000E1024136E146A070E46
:106F4000142211507F0BF46E13C0E1FF14C0E2FF56
:106F5000E750800BF410E76E000E1024136E146AD5
:106F6000070E14221250010BE840F46E13C0E1FF2B
:106F700014C0E2FFE7507F0BF410E76E070E070125
:106F8000366F29D0105027E1800E1124136E146A39
:106F9000000E142213C0E1FF14C0E2FF12C0E7FF8D
:106FA0001AD0D8901036136A400E10260F0E1322F6
:106FB000146A14301230166E156A1532176A1150A1
:106FC00015121750161210C0E1FF13C0E2FF15C0D2
:106FD000E6FF16C0E7FFECCF17F0ECCF16F0ECCFD2
:106FE00015F0ECCF14F0ECCF13F0ECCF12F0ECCFA7
:106FF00011F0ECCF10F0ECCFD9FF12008B8A949AED
:107000009498959A1200F36E8C9A8B9A036A200ECC
:10701000F3B24009046E44D8036A200EF3B040096D
:10702000046E3ED88B8A12000F01615120E08C9AC9
:107030001FEE62F0F36A110EF46EF438F41061156D
:107040000EE08B9A080EE126040EF326F43A11D8CE
:10705000F80EE126FC0EF326F43A0BD88B8AF32ABD
:10706000F3B405D0020EE126D890F436E6D7616B72
:107070001200E6380F0B036EE738F00B0312E53809
:107080000F0B046E60CFE8FFF41403E0031E0F0E35
:10709000041AF338E834E834C00B3009041200D085
:1070A000100E056E8B9804BE8B8803368C8A0436CE
:1070B0008C9A052EF7D712000F01606B036A1FEE42
:1070C00062F0E66AE66A032A03A6FBD701D8ACD7CA
:1070D00095DF0F01616912000F01606F12000F014F
:1070E00060511200056E1FEE62F0E834FE0BE126DF
:1070F000E750031804E1010EE350041809E003C04F
:10710000E6FF04C0E5FF0550C6EC16F00F01611361
:10711000120003C004F0D8900436036AE3D7E9CF25
:10712000D9FFDCCF03F0DCCF04F0DCD7E9CFD9FF07
:10713000DCCF03F0EED710C0EDFF0F010351FF0BC2
:10714000106E26511016105007E0010EED6E180E4D
:10715000E1EC3DF0E92A06D0000EED6E180EE1ECF0
:107160003DF0E92A0F010451FF0B106E2651101655
:10717000105007E0010EED6E190EE1EC3DF0E92A2A
:1071800006D0000EED6E190EE1EC3DF0E92A0F017C
:1071900005A10AD0030E265D1AE2010EED6E1A0E4D
:1071A000E1EC3DF0E92A13D00F0105A30AD0040E4B
:1071B000265D0DE3010EED6E1A0EE1EC3DF0E92ABD
:1071C00006D0000EED6E1A0EE1EC3DF0E92A0F013B
:1071D0000651FF0B106E26511016105007E0010EDD
:1071E000ED6E1B0EE1EC3DF0E92A06D0000EED6ECF
:1071F0001B0EE1EC3DF0E92A0F010751FF0B106E69
:1072000026511016105007E0010EED6E1F0EE1EC36
:107210003DF0E92A06D0000EED6E200EE1EC3DF0C7
:10722000E92A0F010851FF0B106E2651101610505D
:1072300007E0010EED6E1C0EE1EC3DF0E92A06D0F0
:10724000000EED6E1C0EE1EC3DF0E92A010E070187
:10725000536FECCF10F0120010C0EDFF11C0EDFF26
:1072600012C0EDFF07012EB501D07AD007012E958F
:10727000106A2EB7102A10C011F0115005E01050FE
:10728000010A01E15BD06CD0000E88EC16F0000E14
:10729000126E740E116EC20E106E1250ED6E115001
:1072A000ED6E1050B1EC3CF0020EE92627CF2FF71F
:1072B000400E88EC16F007012F5192EC16F023CF08
:1072C00030F7450E88EC16F007013051EFEC34F042
:1072D00024CF30F74A0E88EC16F007013051EFEC5E
:1072E00034F025CF30F74F0E88EC16F007013051FF
:1072F000EFEC34F00CCF2FF7590E88EC16F00701A5
:107300002F5192EC16F00DCF2FF75D0E88EC16F092
:1073100007012F5192EC16F00ECF2FF7610E88EC7B
:1073200016F007012F5192EC16F00FCF2FF7650ED4
:1073300088EC16F007012F5192EC16F0000E88EC45
:1073400016F0000E126E740E116EEC0E106E1250CE
:10735000ED6E1150ED6E1050B1EC3CF0020EE926CE
:10736000ECCF12F0ECCF11F0ECCF10F0120003EEE6
:107370007FF023EE7FF03DEF3AF003EE7FF023EE57
:107380007FF036EF3CF023EE3FF0E9CFDDFFEACFB0
:10739000DDFF03EE3DF022EC3EF03FC3E9FF3EC3CC
:1073A000EAFF1200120003EE7FF023EE7FF08EEF73
:1073B0003CF003EE7FF023EE7FF02CEF39F003EE8C
:1073C0007FF023EE7FF005C0EDFF04C0EDFF03501A
:1073D0006AEF3CF003EE7FF023EE7FF005C0EDFF97
:1073E00004C0EDFF03C0EDFFED6ED3EF3DF003EE03
:1073F0007FF023EE7FF030EF3EF003EE7FF023EEE0
:107400007FF0CCEF3DF01200120003EE7FF023EE90
:107410007FF004C0EDFF80EF19F003EE7FF023EE64
:107420007FF004C0EDFF48EF2EF023EE3FF0E9CFF0
:10743000DDFFEACFDDFF03EE3DF02FEC3EF03FC372
:10744000E9FF3EC3EAFF120023EE3FF0E9CFDDFF84
:10745000EACFDDFF03EE3DF02EEC3EF03FC3E9FF47
:107460003EC3EAFF120003EE7FF023EE7FF005C07B
:10747000EDFF04C0EDFFC5EF3DF0000E36EC16F059
:1074800040EC16F0030E30EC16F0070E78EC16F018
:10749000020E80EC16F0270EED6E100EED6E000E53
:1074A000A7EC3DF0020EE926A2EC36F05CEC38F0D9
:1074B00061EC3BF0F3EC3CF031EC3EF032EC3EF0B2
:1074C000120042504D20204C464F31204C464F3246
:1074D000204C464F332063686E3A204547312045A3
:1074E0004732204547332045473400005341564535
:1074F0003A2063686F6F73652062616E6B20616E06
:1075000064207072657365742E2E2E0036342F3110
:10751000000033322F31000031362F310000203887
:107520002F31000020342F31000020322F31000095
:1075300020312F310000312F3200312F3400312F14
:107540003800312F3136000010C0EDFF0F010BA5C0
:1075500003D00A0E106E02D0050E106E0F010BA79D
:1075600003D0A00E101A02D0500E101A1050ED6E5B
:10757000040EE7EC3DF0E92A26CF10F01050ED6E36
:10758000060EE7EC3DF0E92A0F010BA307D0010E30
:10759000ED6E350EE1EC3DF0E92A06D0000EED6E01
:1075A000350EE1EC3DF0E92A0F010BA107D0010EE9
:1075B000ED6E340EE1EC3DF0E92A06D0000EED6EE2
:1075C000340EE1EC3DF0E92A0F010051FF0B106E83
:1075D0001050ED6E000EE7EC3DF0E92A0F0101516D
:1075E000FF0B106E1050ED6E010EE7EC3DF0E92A36
:1075F0000F010251FF0B106E1050ED6E020EE7EC02
:107600003DF0E92A010E0701536FECCF10F0120094
:10761000D9CFEDFFE9CFD9FF10C0EDFF11C0EDFFCD
:1076200012C0EDFF0701266F020EDBCF27F7030E16
:10763000DBCF28F7040EDBCF29F70701285107011C
:107640002625106E0701295107012721116E070118
:10765000206B1150216F73CF10F074CF11F075CFE4
:1076600012F01250ED6E1150ED6E1050ED6E215172
:10767000ED6E20511DEC3DF0040EE9260701265168
:10768000106E1050ED6E000EED6E010E9FEC3DF091
:10769000020EE92607012851106E1050ED6E000E03
:1076A000ED6E020E9FEC3DF0020EE92607012E97CB
:1076B000ECCF12F0ECCF11F0ECCF10F0ECCFD9FF03
:1076C000120010C0EDFF11C0EDFF12C0EDFF13C09E
:1076D000EDFF100E106E1004116E000E1124126ECC
:1076E000136A070E1322000E12C0E1FF13C0E2FF5F
:1076F000E76E11C010F01050EEE1106A800E105CC1
:107700000EE2800E1024116E126A000E122211C0B9
:10771000E1FF12C0E2FF000EE76E102AEFD7106AF9
:10772000116A200E105C12E2400E1124126E136AD0
:107730000F0E132212C0E1FF13C0E2FF000EE66E2F
:10774000000EE76E112A112A102AEBD7ECCF13F0A6
:10775000ECCF12F0ECCF11F0ECCF10F01200D9CF3B
:10776000EDFFE9CFD9FF10C0EDFF11C0EDFF12C052
:10777000EDFF0701226F020EDBCF23F7030EDBCFF5
:1077800024F7040EDBCF25F707012451070122253A
:10779000106E0701255107012321116E0701206B8F
:1077A0001150216F73CF10F074CF11F075CF12F01C
:1077B0001250ED6E1150ED6E1050ED6E2151ED6EC8
:1077C000205128EC3DF0040EE9260701526B010E12
:1077D0000701536F010E0701546FECCF12F0ECCF8D
:1077E00011F0ECCF10F0ECCFD9FF120010C0EDFF7C
:1077F0000F010951FF0B106E26511016105007E0B3
:10780000010EED6E1D0EE1EC3DF0E92A06D0000EF2
:10781000ED6E1D0EE1EC3DF0E92A0F010A51FF0B60
:10782000106E26511016105007E0010EED6E1E0E60
:10783000E1EC3DF0E92A06D0000EED6E1E0EE1EC03
:107840003DF0E92A050E66EC16F0106EF00E1016EB
:107850000F01265110121050ED6E050EE7EC3DF0B1
:10786000E92A0701536BECCF10F0120007015251C7
:107870000DE00F017951ED6E7851ED6E0F017751EA
:10788000ED6E7651AFEC3BF0030EE9260701535144
:1078900002E0A4EC3AF00701535102E09BEC38F00F
:1078A0000701535102E0F6EC3BF0070154510DE0A3
:1078B0000F017951ED6E7851ED6E0F017751ED6E3C
:1078C0007651E2EC35F0030EE92673EC31F014EC5E
:1078D00038F01200D9CFEDFFE9CFD9FF10C0EDFF8E
:1078E00011C0EDFF12C0EDFF106E020EDBCF11F0E4
:1078F000030EDBCF12F01250ED6E1150ED6E1050F2
:10790000ED6E5FEC37F0030EE926ECCF12F0ECCF12
:1079100011F0ECCF10F0ECCFD9FF120010C0EDFF4A
:1079200011C0EDFF12C0EDFF82EC16F0000E88ECE6
:1079300016F0000E126E740E116EC20E106E125002
:10794000ED6E1150ED6E1050B1EC3CF0020EE926D8
:1079500007012E85ECCF12F0ECCF11F0ECCF10F038
:107960001200F66EE9CFD9FFDCCFF7FFDC50E8BE9E
:1079700008D0F86E0900F55003E094EC16F0FAD741
:107980001200D9CF06F0DACF07F0F6CFD9FFF7CF44
:10799000DAFFDE5003E094EC16F0FBD706C0D9FF07
:1079A00007C0DAFF1200E9CFD9FF0A6EDCCFE1FF92
:1079B000DCCFE2FFDC52DCCF03F0DCCF04F0E6CF1B
:1079C00006F0E6CF07F010EE06F00A50DCEC16F0F9
:1079D000E9CFD9FFDCCFE1FFDCCFE2FF06C0E6FF55
:1079E00007C0E6FF1200FF0E0F017E6F7F0E7F6F54
:1079F000FF0E0701106F7F0E116FFF0E0701126F50
:107A00007F0E136F1200F66EE9CFD9FFDCCFF7FFC0
:107A1000DCCFF8FFDCCFE1FFDCCFE2FFB4EF16F004
:107A2000F66EE9CFD9FFDCCFF7FFDCCFF8FFDCCF74
:107A3000E1FFDCCFE2FFB6EF16F0036EE9CFD9FF2E
:107A4000DCCF04F0DCCFE1FFDCCFE2FFF2EF16F099
:107A5000036EE9CFD9FFDCCF04F0DCCFE1FFDCCF50
:107A6000E2FF18EF17F0E9CFD9FFDCCFF8FFDCCF4A
:107A7000F7FFDCCFF6FF9CEF16F0E9CFD9FF036EDE
:107A8000DCCF04F0DCCF05F0DC50A8EF16F0E9CF36
:107A9000D9FFDCCFF6FFDCCFF7FFDCCFF8FFE4EF58
:107AA00016F0F66EE9CFD9FFDCCFF7FFDCCFF8FF99
:107AB0009AEF16F0F66EE9CFD9FFDCCFF7FFDCCFF7
:107AC000F8FF9EEF16F0F66EE9CFD9FFDCCFF7FF97
:107AD000DCCFF8FFE6EF16F0F66EE9CFD9FFDCCF8A
:107AE000F7FFDCCFF8FFAAEF16F0A96EE9CFD9FFB8
:107AF000DCCFE1FFDCCFE2FF1AEF17F0A96EE9CF90
:107B0000D9FFDCCFE1FFDCCFE2FF1CEF17F0E9CFBC
:107B1000D9FFDCCF03F0DCCF04F052EF16F0E9CF51
:107B2000D9FFDCCF03F0DCCF04F074EF16F0E9CF1F
:107B3000D9FFDCCF03F0DCCF04F0A4EF16F0036E26
:107B4000E9CFD9FFDCCF04F0DC50BAEF16F0E9CF73
:107B5000D9FFDCCF03F0DCCF04F0BCEF16F0E9CFA7
:107B6000D9FFDCCF03F0DCCF04F01EEF17F0036E7B
:107B7000E9CFD9FFDCCF04F0B8EF16F01200120005
:107B800012001200120012001200D9CFEDFFE9CF4F
:107B9000D9FFECCFD9FF1200D9CFEDFFE9CFD9FF44
:107BA000ECCFD9FF1200D9CFEDFFE9CFD9FFECCF51
:107BB000D9FF12000100587C0000720F0000040081
:107BC0000000E9CFD9FFDCCF03F060EF16F0E9CF7A
:107BD000D9FFDCCF03F068EF16F0E9CFD9FFDCCF97
:107BE00003F06AEF16F0E9CFD9FFDCCF03F06EEFB8
:107BF00016F0E9CFD9FFDCCF03F072EF16F0E9CF32
:107C0000D9FFDCCF03F0F6EF16F0E9CFD9FFDCCFD8
:107C100003F0F8EF16F0E9CFD9FFDCCF03F0AEEFB9
:107C200016F0A96EE9CFD9FFDC50B2EF16F0E9CF1C
:107C3000D9FFDCCF03F0F4EF16F03AEC16F004C0F5
:107C4000F3FF12009EEC20F01AEC26F01200A96E51
:107C5000B0EF16F0A6EF16F001000E0012001200B1
:067C6000120012001200E8
:00000001FF
